:100000000C948A160C94C0160C94C0160C94C0164E
:100010000C94C0160C94C0160C94C0160C94C01608
:100020000C94C0160C94C0160C94C0160C94082E98
:100030000C94C0160C9435320C94C0160C940E33EC
:100040000C94C0160C94C0160C94C0160C94C016D8
:100050000C94C0160C94C0160C94C0160C94C016C8
:100060000C94C0160C94C0160C94C0160C94C016B8
:100070000C94C0164121171E1F1E371E3F1E3F2124
:100080003F21051F0D1F3F213F213F213F213F21E0
:100090003F21EB1FF42012210820232045206D2052
:1000A0008820A320C620D82EF82EE32FF82EE32F89
:1000B0003A2F5D2FE32FB22FC52F00000000000064
:1000C000000000000000000000002A002B002800B3
:1000D00000000000280000000000000000000000F8
:1000E0000000000000000000000000000000000010
:1000F000290000000000000000002C001E02340255
:1001000020022102220224023400260227022502B4
:100110002E0236002D003700380027001E001F0079
:1001200020002100220023002400250026003302A5
:10013000330036022E00370238021F020402050285
:1001400006020702080209020A020B020C020D0253
:100150000E020F0210021102120213021402150203
:1001600016021702180219021A021B021C021D02B3
:100170002F003100300023022D023500040005005D
:1001800006000700080009000A000B000C000D0023
:100190000E000F00100011001200130014001500D3
:1001A00016001700180019001A001B001C001D0083
:1001B0002F023102300235024C0000000000000026
:1001C000000000000000000000000000000000002F
:1001D000000000000000000000000000000000001F
:1001E000000000000000000000000000000000000F
:1001F00000000000000000000000000000000000FF
:100CF000000000000000000000000000500000386C
:100D0000000000051100F1E64500514F0000000011
:100D100000001D1B06191036370028E4000000E112
:100D200000E3002F2BF13C171C3040002A0000008C
:100D3000E7E500000033041607090D0E0F0031002F
:100D4000000000004A004B2D353A3B22232E410083
:100D500042E04C4900004D004E271E1F2021242553
:100D60002646433E000000005200003429003D0AA0
:100D70000B3F00E244002C00000000000013141A96
:100D80000815180C124700480000000050000038F9
:100D9000000000051100F1E6B100514F0000000015
:100DA00000001D1B06191036370028E4000000E182
:100DB00000E3002F2BF13C171C3040002A000000FC
:100DC000E7E50000002A04B2B1B051524F003100F3
:100DD000000000004A004B2D353A3B22232E4100F3
:100DE00042E04C4900004D004E271E1F20212425C3
:100DF0002646B03E0000000052000034AE003D0A1E
:100E0000503F00E2B2002C00000000000013141A52
:100E10000815180C124700480000000000000000F0
:100E200000000000000000000000000000000000C2
:100E300000000000000000000000000000000000B2
:100E400000000000000000000000000000000000A2
:100E50000000000000000000000000000000000092
:1012900000000000000000000000FF07FF07FF073C
:1012A000FF07FF07FF07FF07FF07FF07FF07FF070E
:1012B000FF07FF07FF07000000000000000000001C
:1012C000000000000000000000000000000000001E
:1012D000000000000000000000000000000000000E
:1012E00000000000000000000000000000000000FE
:1012F00000000000000000000000000000000000EE
:1022900000000000000000000000FF00000001003E
:1022A000FF00FF000200FF00FF00FF00FF00FF0033
:1022B000FF00FF00FF00FF00FF00FF00FF00FF0026
:1022C000FF00010501010601000701022302780257
:1022D000130269020B023B02680260027002610293
:1022E0007102620279026A0243021B022B0233016D
:1022F00007000500040006000100000003000200C2
:1023000000000000000000000000000000000000CD
:1023100000000000000000000000000000000000BD
:102320000000000000000000010101011400000095
:10233000000000000000000000000000000000009D
:10234000000000000000000000000000000000008D
:102350000000000000000101010114000000000065
:10236000000000000000000000000000000000006D
:10237000000000000000000000000000000000005D
:102380000000000001010101140000000000000035
:10239000000000000000000000000000000000003D
:1023A000000000000000000000000000000000002D
:1023B00000000101010114AF010001B7010101BBDF
:1023C000010201AD010301B3010401BA010501BC21
:1023D000010601B0010701AA010801B5010902B116
:1023E000010B02AE010D01B4010E01B8010F02ACE8
:1023F0000111016141624263436444654566466779
:1024000047684869496A4A6B4B6C4C6D4D6E4E6F1C
:102410004F7050715172527353745475557656778C
:1024200057785879597A5A31213240332334243538
:1024300025365E3726382A3928302900000000006A
:1024400000000020202D5F3D2B5B7B5D7D5C7C23AD
:102450007E3B3A2722607E2C3C2E3E2F3F00000020
:10246000000000000000000000000000000000006C
:10247000000000000000000000000000000000005C
:10248000000000000000000000000000000000004C
:102490000000002F2F2A2A2D2D2B2B000031003277
:1024A0000033003400350036003700380039003082
:1024B000002E005C7C000000000000000000000016
:1024C000000000000000000000000000000000000C
:1024D0000000006162636465666768696A6B6C6DC1
:1024E0006E6F707172737475767778797A41424342
:1024F0004445464748494A4B4C4D4E4F5051525324
:102500005455565758595A30313233343536373896
:10251000392122232425262728292A2B2C2D2E2F2A
:102520003A3B3C3D3E3F405B5C5D5E5F607B7C7D5B
:102530007E002A03450061007300790041005600C7
:1025400052002000460072006F0073007400790092
:10255000200046006C0061006B0065000000040371
:10256000090409022200010100A03209040000014F
:1025700003010100092111010001223F000705812B
:102580000308000109025400030100A032090400FD
:10259000000103010100092111010001223F000790
:1025A000058103080001090401000103010200097B
:1025B0002111010001223A000705820303000509E9
:1025C0000402000103000000092111010001221B87
:1025D000000705830302000809025400030100A05C
:1025E0003209040000010301010009211101000169
:1025F000223F0007058103120001090401000103C5
:10260000010200092111010001223A00070582039D
:102610000300050904020001030000000921110163
:102620000001221B000705830302000812010002BB
:1026300000000008EB03FF20010000010001050C71
:102640000901A101050C160100269C021A01002AAD
:102650009C02751095018100C005010902A10109C4
:1026600001A100050919012903150025019503752C
:1026700001810295017505810105010930093116B5
:1026800081FF267F00360000460000950275088114
:1026900006C0C005010906A101050719E029E715D3
:1026A00000250175019508810295017508810105D4
:1026B0000819012905950575019102950175039188
:1026C000011500250105071900297F9580750181F5
:1026D00002C005010906A101050719E029E7150057
:1026E000250175019508810295017508810105088C
:1026F000190129059505750191029501750391014F
:10270000150025FF0507190029FF950675088100AA
:10271000C04F7574206F662072616E67652E0A0067
:10272000456E746572206E65772064656661756CB0
:10273000742064696D6D6572206C6576656C202807
:10274000312D3136293E2000456E746572206E654C
:10275000772064656661756C74206261636B6C6977
:1027600067687420656E61626C652028312D31299F
:102770003E20000A456E746572206E657720726592
:10278000706561742074696D6520696E206D7320B9
:1027900028312D3939293E20000A456E7465722092
:1027A0006E657720686F6C642074696D6520696E52
:1027B000206D732028312D393939293E2000456E8E
:1027C000746572206E6577206D6F757365206D6F0F
:1027D00076656D656E74206D756C7469706C696575
:1027E000722028312D3939293E2000456E746572DA
:1027F000206E65772062617365206D6F757365204B
:102800006D6F76656D656E742028312D3939293EDE
:1028100020000A456E746572206E657720646F75BE
:10282000626C657461702064656C61792074696D97
:102830006520696E206D732028312D393939293E84
:1028400020000A456E746572206E65772074617091
:102850002074696D6520696E206D732028312D39D3
:102860003939293E2000456E746572206E657720E7
:102870006465626F756E63652074696D6520696E4D
:10288000206D732028312D3939293E20005365747D
:102890003A2000456E746572206E65772064656627
:1028A00061756C74206C617965722028302D39292E
:1028B0003E20004E756D206C6F636B206973206C39
:1028C000696E6B656420746F20746865207379731A
:1028D00074656D206E756D206C6F636B2E0A004EF3
:1028E000756D206C6F636B2077696C6C2066756EFC
:1028F0006374696F6E20696E646570656E64656E81
:10290000746C79206F6620746865207379737465C0
:102910006D206E756D206C6F636B2E0A004B6579B0
:10292000626F6172642061637473206173206578E3
:1029300074656E646564204E4B524F206B657962FE
:102940006F6172642077697468206D6F757365209C
:10295000616E64206D65646961206B6579732E0A10
:10296000004B6579626F61726420616374732061EA
:102970007320364B524F206B6579626F6172642011
:10298000706C7573206D6F75736520616E64206D5A
:1029900065646961206B6579732E0A004B65796205
:1029A0006F617264206973206C696D69746564205D
:1029B000746F207374616E6461726420364B524F81
:1029C00020626F6F742D636F6D70617469626C65E6
:1029D000206B6579626F6172642E0A005363726FB7
:1029E0006C6C206C6F636B2077696C6C206E6F74FD
:1029F000206166666563742077696E206C6F636B17
:102A00002E0A0057696E646F7773206B65792077A3
:102A1000696C6C2062652064697361626C65642016
:102A20007768656E207363726F6C6C206C6F636B7C
:102A300020697320656E61626C65642E0A004E75B4
:102A40006D206C6F636B2077696C6C206E6F7420E7
:102A5000616666656374206E756D62657220726F63
:102A6000772E0A004E756D62657220726F7720773F
:102A7000696C6C2062652073776170706564206694
:102A80006F72206E756D706164206B65797320774D
:102A900068656E206E756D206C6F636B20697320A6
:102AA000656E61626C65642E0A00496E70757420F3
:102AB0006E6F74207265636F676E697A65642E0A43
:102AC000000A54696D696E67204D656E753A0A316A
:102AD0002920536574206465626F756E6365207488
:102AE000696D650A322920536574206D617820680C
:102AF0006F6C642074696D6520666F7220746170FC
:102B00000A332920536574206D61782064656C61F7
:102B1000792074696D6520666F7220646F75626CD0
:102B200065207461700A34292053657420626173D2
:102B300065206D6F757365206D6F76656D656E745C
:102B40000A352920536574206D6F757365206D6F8C
:102B500076656D656E74206D756C7469706C6965F1
:102B6000720A362920536574206D696E20686F6C77
:102B7000642074696D6520666F722072657065618E
:102B8000740A37292053657420726570656174205A
:102B9000706572696F640A3929204261636B0A3E6D
:102BA00020000A436F6E666967204D656E753A0AAC
:102BB000312920546F67676C65207669727475617E
:102BC0006C206E756D207061640A322920546F6725
:102BD000676C652077696E206C6F636B206F6E2069
:102BE0007363726F6C6C206C6F636B0A33292053B4
:102BF00065742064656661756C74206C61796572BA
:102C00000A342920546F67676C65206261736963B9
:102C1000206B6579626F6172640A352920546F6791
:102C2000676C6520756E6C696E6B206E756D206CBF
:102C30006F636B0A3629205365742064656661757D
:102C40006C742064696D6D6572206C6576656C0AC4
:102C50003729205365742064656661756C74206241
:102C600061636B6C6967687420656E61626C650A8C
:102C70003929204261636B0A3E20000A4D61696E6A
:102C8000204D656E753A0A312920436F6E6669677B
:102C9000206D656E750A32292054696D696E672052
:102CA0006D656E750A34292052657365740A392979
:102CB00020517569740A3E20001E4D1F51204E217F
:102CC000502200234F244A2552264B2749374CE2F5
:102CD00000E900EA00E500B500B600B700CD002429
:102CE00002250283018A019201940121022302C17B
:102CF00001C202C304C408C510E001E102E204E31A
:102D000008E410E520E640E7800105080A0C0F10F2
:102D10001414181811241FBECFEFD4E0DEBFCDBFAE
:102D200084B714BE98E10FB6F894909360001092A7
:102D300060000FBE83FF0DC08091770490917804EE
:102D40008D3A9E4D31F410927804109277040C94D1
:102D5000003811E0A0E0B1E0E6E3FBE602C0059038
:102D60000D92A036B107D9F724E0A0E6B1E001C08A
:102D70001D92A737B207E1F70E94A6300C9499354F
:102D80000C9400001092870110928601109282012B
:102D900010928101109291011092900108959091EA
:102DA000830180918E019923D9F1811140C08091D6
:102DB0008501811131C08091A201811126C08091CD
:102DC0007D01811124C0E0917C01E91305C01092BE
:102DD000830110927C012BC081E08E0F80937C01D7
:102DE000F0E0EE0FFF1FEE56FE4F808191818130A3
:102DF00019F4909385011BC090937D018093A201EB
:102E00008823A9F00E94BD2112C00E94F2211092D5
:102E1000A20110927D010BC081508093850107C0F3
:102E2000811105C0809184018D7F80938401809100
:102E30008E01811103C081E080938E0108958091FD
:102E40006A0290917E01981739F180937E01882360
:102E500019F1883211F0883531F4809184018B7F2B
:102E6000809384010895909180018A3259F49923C6
:102E700099F0915090938001E92FF0E0E857FE4FD0
:102E800010820895963040F4E92FF0E0E857FE4FA5
:102E900080839F5F909380010895709183019C01CE
:102EA000672F462F471B683058F060938301840FCB
:102EB000911D47FD9A95909391018093900122C0B6
:102EC000F901459154912F5F3F4F411109C0609323
:102ED000830110929101109290016623C1F012C0FB
:102EE000FA01FF27EE0FFF1FE654FF4F4591549163
:102EF000E62FF0E0EE0FFF1FEE56FE4F51834083AA
:102F00006F5FCFCF8091840183608093840181E0E3
:102F100008954091830128E030E0241B31092617F1
:102F2000370750F140E0242F332727FD309526172F
:102F30003707D0F450918301FC01E20FF31FE081C9
:102F4000F0E0EE0FFF1FE654FF4F25913491E52F7F
:102F5000F0E0EE0FFF1FEE56FE4F318320835F5FE0
:102F6000509383014F5FDFCF672B41F08091840145
:102F700083608093840102C080E0089581E0089519
:102F800090918301983090F4E92FF0E0EE0FFF1F4D
:102F9000EE56FE4F808361839F5F90938301809103
:102FA000840183608093840181E0089580E0089526
:102FB00020918301211132C09C0160E0683060F0F3
:102FC00060938301262F220F330B280F391F309374
:102FD0008701209386011BC0F901459154912E5F12
:102FE0003F4F4115510549F46093830110928701C9
:102FF00010928601662381F00AC0E62FF0E0EE0F02
:10300000FF1FEE56FE4F518340836F5FD7CF8091F5
:10301000840183608093840181E0089580E00895B5
:10302000CF93DF9320918301211140C060938F01E2
:10303000C0E0DC01D62F20E030E02617370741F151
:10304000C83068F0C0938301D0938F01220F331FE3
:10305000280F391F30938201209381011DC04D91AB
:103060005D91EC2FF0E0EE0FFF1FEE56FE4F518307
:103070004083CF5FD1502F5F3F4FD111DECFC09340
:10308000830110928F01109282011092810104C07D
:10309000C0938301D0938F0180918301882341F0F5
:1030A0008091840183608093840102C080E001C02C
:1030B00081E0DF91CF9108952091840121FD0C944E
:1030C000CF168091860190918701009711F00C94A2
:1030D000D8178091810190918201009739F0609119
:1030E0008F01772767FD70950C94101880919001DF
:1030F00090919101009711F00C944D1722FD0C94C2
:103100001F1710928401089510928801109289016E
:1031100010928A0110928B0110928C0110928D01F5
:103120001092800180916A0280937E0180918401D7
:103130008560809384010895E82FF0E0EE0FFF1F73
:10314000E654FF4F85919491089581E08093A60104
:1031500008952091A601622F70E00E944F346AE02A
:1031600070E00E946C348091A501962F981B892FE6
:103170006093A5012F5F2093A6012B3028F01092B9
:10318000A50191E09093A60108958091C602811156
:1031900004C080917102882321F181E08093A9010C
:1031A0002091AE018091A7016091B4019091A80196
:1031B000911122C070E090E00E944F34820F911D67
:1031C0000E94A918982F6091C6020E9446348093ED
:1031D000A40160917102892F0E9446348093A3015B
:1031E0000BC01092A9011092A5011092A401109297
:1031F000A3018AE08093A6018091A801811103C0F8
:1032000081E08093A8010895CF93DF93CDB7DEB717
:1032100062970FB6F894DEBF0FBECDBF68E1609332
:10322000AF011092B7011092BB011092AD0150E1B5
:103230005093B3011092BA0146E04093BC01109242
:10324000B0011092AA0180EF90E09093B6018093B4
:10325000B50188E89FEF9093B2018093B10135E00A
:103260003093AE012FE02093B40180E293E090937D
:10327000B9018093B80180E28093AC0169831A821E
:103280001B821C825D831E824F831886198690EFF5
:103290009A871B8698E89C879FEF9D873E872F879C
:1032A000888B93E0998B8A8B42E150E060E070E07C
:1032B000CE0101960E946C3562960FB6F894DEBF7F
:1032C0000FBECDBFDF91CF9108950F931F93CF9382
:1032D000DF93C7EBD3E2FE01329684913196E491FD
:1032E00090E0E23059F4FE01059114918050904035
:1032F0000E946635F8019183808309C0FE01059123
:103300001491805090400E945E35F801808324968D
:10331000F3E2C33FDF07F9F66091AF01683139F09E
:1033200070E041E080E50E94511D0E9404198091E7
:10333000BA018093AB01DF91CF911F910F91089556
:1033400090E0FC01EE0FFF1FEE0FFF1FE754FC4D56
:103350002491FC01EE0FFF1FEE0FFF1FE654FC4D02
:103360003491FC01EE0FFF1FEE0FFF1F822F90E044
:10337000E954FC4D323041F4A591B4916D917C91AA
:10338000805090400C948435A591B4916C918050FC
:1033900090400C94763585E08093C001089580912B
:1033A000BF01992787FD90956EE270E00E944F342F
:1033B00081509D4DFC01B9964491319634913196DE
:1033C00024913196549190918F018091BD0191305B
:1033D00079F01CF4992331F01FC0923081F09330C2
:1033E000A9F01AC0442321F06AE10E9460342EC083
:1033F000332329F06AE10E946034965E27C02223BD
:1034000029F06AE00E9460349C5C20C0552321F0C2
:10341000982F9F71925C1AC0411102C060E001C0F8
:103420006AE13111665E2111665F5111605E0E9492
:103430006034411101C0965E311103C09A3134F0FD
:10344000965E211103C094330CF0965FE92FFF279D
:10345000E7FDF095ED52FB4D8491089584509272F2
:10346000E82FF0E0EE0FFF1F911103C0ED50FC4D6F
:1034700002C0EC50FC4D849108950F931F93CF939D
:10348000DF938091BF01992787FD90956EE270E0F0
:103490000E944F34EC01C150DD4D20918F01332744
:1034A00027FD3095FE01B896649170E0C9010E9435
:1034B0008034182F0091BD0160917F01772767FD4F
:1034C0007095C9010E9480349927880F991F8E58E2
:1034D0009D4FFC01808191810E942E1A800F982FB0
:1034E000990F87FD9F5F9093BD01FE01E10FF11DD4
:1034F000C4918091BD018C278093BD01DF91CF9154
:103500001F910F910895CF92DF92EF92FF920F9348
:103510001F93CF93DF931F92CDB7DEB78091BF018A
:10352000992787FD90956EE270E00E944F3481509C
:103530009D4DFC01BD966491062F10E048E2C42E1B
:10354000D12CC01AD10ACC0CDD1C96012E583D4F4F
:1035500069012091C001223009F440C028F42223DF
:1035600051F02130C1F0B1C0233009F458C02430EB
:1035700009F47FC0AAC01092BD0121E02093C001D0
:1035800010928F01FC01B896849181119EC085E054
:103590008093C0019AC020918F01FC01E20FF11DC0
:1035A00027FDFA9544913091BD01430F4093BD0131
:1035B0002F5F20938F01FC01B8968491332727FD5C
:1035C000309590E0281739070CF47FC082E0809393
:1035D000C00110928F014093BE0177C01091BE01CF
:1035E000A0918F01AA0FBB0BAE58BD4F8D919C913E
:1035F00069830E942E1A810F8093BE0190918F01E2
:103600009F5F90938F0120917F01698192170CF445
:103610005CC00E9460349093BE0183E025C00E948C
:103620003D1AE090BE01F12CEE0CFF1CEC0CFD1CD1
:103630000E94CF190E949C18F7019183808380918A
:10364000BE0190E00196B8010E9480348093BE01D3
:1036500080918F018F5F80938F01992787FD9095CF
:103660008017910794F184E08093C00110928F013C
:103670002CC040918F01842F880F990BF601E80F21
:10368000F91F20813181DC01AE58BD4F2D933C9351
:1036900081E0840F80938F01992787FD9095801793
:1036A00091079CF085E08093C00160937F01B80191
:1036B00082E792E00F90DF91CF911F910F91FF90E1
:1036C000EF90DF90CF900C9410180F90DF91CF9176
:1036D0001F910F91FF90EF90DF90CF900895809110
:1036E000C001853011F00C94831A0895292F3327D7
:1036F00023303105E9F044F42130310509F44FC09D
:103700002230310541F05AC02132310501F1223217
:10371000310591F153C08091AB01833009F444C06D
:10372000813009F046C084E590E024E835E263C0CA
:103730009927009731F0019709F040C0E2E3F5E2E4
:1037400002C0EEE5F5E2849190E09F0154C0613043
:10375000D1F138F0623091F589E090E02CE136E269
:103760004AC08091AB01833099F18130B1F589E095
:1037700090E026E935E23FC06130A1F138F06230D7
:10378000E9F48BE190E02EE336E235C08091AB01A5
:1037900080FF2DC08FE390E022ED36E22CC082E165
:1037A00090E02CE236E227C082E290E022E635E2A9
:1037B00022C084E590E028ED35E21DC080E090E075
:1037C00020E030E018C089E090E023E036E213C04A
:1037D00089E090E024E735E20EC089E090E02AEE2F
:1037E00035E209C08AE390E029E536E204C08FE3C0
:1037F00090E023E936E2FA0131832083089581E0E5
:103800000C94F1280895CF93DF9380E291E00E9419
:10381000B22AC82F8091AB0181FD0BC080E191E0FD
:103820000E94B22AD82F80E091E00E94B22A8D2314
:10383000C823CC2311F080E001C083E00E94F1286E
:103840008091E20084608093E200DF91CF9108953F
:1038500080E291E00E947B298091AB0181FD08C04C
:1038600080E191E00E947B2980E091E00C947B292B
:10387000089580912E0190912F01009729F00197D2
:1038800090932F0180932E018091AB0181FD16C092
:1038900080911E0190911F01009729F0019790934C
:1038A0001F0180931E0180910E0190910F010097DE
:1038B00029F0019790930F0180930E01089580E005
:1038C0000C94F1280F931F93CF93DF93E90121E02C
:1038D00080329207F1F410928E012091AB01CE015B
:1038E000029620FD07C020912901222319F00E9491
:1038F0001F2802C00E940828CE010E942D28809116
:10390000AB0180FF03C088E090E024C082E190E03A
:1039100021C080519140B1F41092A8018091C5025C
:1039200088838091A40189838091A3018A8383E0A5
:1039300090E0F8019183808381E09091A901911139
:103940000DC00BC08091C3029091C40299838883FB
:1039500082E090E0F8019183808380E0DF91CF9155
:103960001F910F910895CF93DF93E9018052914009
:1039700009F056C08091B001811114C098818091E6
:10398000BB0190FF09C0882319F081E08093C90230
:1039900080E00E94B72806C081111092C90280E021
:1039A0000E94D328888181FF04C081E00E94B7284B
:1039B00003C081E00E94D328888182FF0EC082E08C
:1039C0000E94B7288091B701882399F081E0809305
:1039D000CB0285E00E94B7280CC082E00E94D32869
:1039E0008091B701882329F01092CB0285E00E94D4
:1039F000D328888183FF04C083E00E94B72803C0D6
:103A000083E00E94D328888184FF05C084E0DF9191
:103A1000CF910C94B72884E0DF91CF910C94D328F8
:103A2000DF91CF9108958091AB0180FF09C088E0BC
:103A30008093280188E090E09093230180932201F5
:103A4000089580E291E00E94C62A8091AB0181FD39
:103A500008C080E191E00E94C62A80E091E00E94C7
:103A6000C62A0E94FB2F8091DB029091600198177B
:103A700059F06091DB0270E041E086EA0E94511D3E
:103A80008091DB028093600108958091D9028823A0
:103A900031F08091DB02853011F40C94882B08956D
:103AA000089508958A3010F4805D0895895C089522
:103AB0001F93CF93DF93182FEB0182958F700E9495
:103AC000521D8883812F8F700E94521D8983DF9140
:103AD000CF911F9108958F929F92AF92BF92CF92F4
:103AE000DF92EF92FF920F931F93CF93DF931F927A
:103AF000CDB7DEB79C014B0180E3FB01808380E200
:103B00008183828303E010E084E6C82ED12C9AE002
:103B1000B92E6C2D70E0D11003C02617370798F02E
:103B20007401ED0CF11CD7FCFA94C9010E946C34AD
:103B3000A82E862F99830E94521DF70180832A2D7B
:103B40009981392FD3948C2D6B2D0E946034C82E0F
:103B50000150110901151105E1F60F90DF91CF9188
:103B60001F910F91FF90EF90DF90CF90BF90AF909B
:103B70009F908F90089597EA980F993010F4885588
:103B8000089592EE980F993010F48D5108959CEF9E
:103B9000980F963010F48A5F089580E00895BF92E0
:103BA000CF92DF92EF92FF920F931F93CF93DF9309
:103BB0008C01EB0180E090E0B12CE42EF12C2B2D58
:103BC000332727FD30952C173D0780F4B7010E945D
:103BD0004F346C01F801E20FF31F80810E94BB1D7E
:103BE0009601280F311DC901B394E9CFDF91CF9120
:103BF0001F910F91FF90EF90DF90CF90BF900895AD
:103C00001F93CF93DF9300D000D0CDB7DEB7809164
:103C10008401811136C38091C10190E08931910501
:103C200008F02DC3FC01E65CFF4F0C94B6348BE723
:103C30009CE20E944D170E94841882E01DC311E08F
:103C40001093C101809188010E94BB1D893009F445
:103C500016C3843019F41093C20113C3813009F4E0
:103C60000AC3823009F4BEC28AEA9AE28DC082EAAF
:103C70009BE20E944D170E94841884E0FDC213E06D
:103C80001093C101809188010E94BB1D893009F405
:103C9000CDC0813091F49091BB0198279093BB01E6
:103CA00082E00E94A0198091BB01882319F084E66C
:103CB0009AE26AC08EE39AE267C0823099F48091FA
:103CC000B70191E089278093B70181E00E94A01994
:103CD0008091B701882319F083E09AE255C08CEDFA
:103CE00099E252C08330D9F48DE898E20E944D17D2
:103CF000BE016F5F7F4F8091AD010E94581D8AE029
:103D00008B8363E070E0CE0101960E94891783E9FE
:103D100098E20E944D170E9484188FE0ADC2843053
:103D2000F9F48091BA01811109C081E08093BA0150
:103D300085E00E94A01981E699E226C0813041F415
:103D40001093BA0185E00E94A0198CE999E21CC089
:103D50001092BA0185E00E94A0198DE199E214C089
:103D60008530A9F48091B00191E089278093B0015A
:103D700087E00E94A0198091B001882319F08FED8F
:103D800098E202C083EB98E20E944D177AC2863017
:103D9000E1F48DE898E20E944D178091B301BE01D5
:103DA0006F5F7F4F90E00E946B1D8AE08B8363E022
:103DB00070E0CE0101960E94891780E297E20E948E
:103DC0004D170E94841880E157C2873009F04CCF0C
:103DD0008DE898E20E944D178091AA0190E0BE0103
:103DE0006F5F7F4F01960E946B1D8AE08B8363E0BB
:103DF00070E0CE0101960E94891788E497E20E9444
:103E00004D170E94841881E137C281EC9AE20E942A
:103E10004D170E94841888E02FC287E08093C1016B
:103E2000809188010E94BB1D893011F481E024C279
:103E30008130E1F48DE898E20E944D178091BC0139
:103E4000BE016F5F7F4F90E00E946B1D8AE08B8305
:103E500063E070E0CE0101960E94891786E698E241
:103E60000E944D170E94841882E106C28230D9F464
:103E70008DE898E20E944D17BE016F5F7F4F8091E1
:103E8000B5019091B6010E946B1D63E070E0CE0118
:103E900001960E94891782E498E20E944D170E94C1
:103EA000841883E1E9C18330F1F48DE898E20E943F
:103EB0004D178091B1019091B201BE016F5F7F4FAC
:103EC0009195819591090E946B1D63E070E0CE0190
:103ED00001960E94891782E198E20E944D170E9484
:103EE000841884E1C9C18430E1F48DE898E20E942D
:103EF0004D178091AE01BE016F5F7F4F90E00E9431
:103F00006B1D8AE08B8363E070E0CE0101960E9416
:103F100089178BEE97E20E944D170E94841885E165
:103F2000ABC18530E1F48DE898E20E944D17809195
:103F3000B401BE016F5F7F4F90E00E946B1D8AE06D
:103F40008B8363E070E0CE0101960E9489178EEBAF
:103F500097E20E944D170E94841886E18DC1863039
:103F6000D9F48DE898E20E944D17BE016F5F7F4F34
:103F70008091B8019091B9010E946B1D63E070E0DF
:103F8000CE0101960E94891789E997E20E944D1798
:103F90000E94841887E170C1873009F072C18DE8F2
:103FA00098E20E944D178091AC01BE016F5F7F4F78
:103FB00090E00E946B1D8AE08B8363E070E0CE018D
:103FC00001960E94891783E797E20E944D170E948D
:103FD000841888E151C16091800170E04AE088E86E
:103FE00091E00E94CF1D8A30910508F040C1809376
:103FF000AD0183E00E94A0198DE898E20E944D1760
:10400000BE016F5F7F4F8091AD010E94581D26C198
:104010006091800170E04AE088E891E00E94CF1D45
:104020009C01215031092336310508F0D7C0809317
:10403000BC0186E00E94A0198DE898E20E944D170D
:104040008091BC01BCC06091800170E04AE088E8CA
:1040500091E00E94CF1D9C0121503109273E334041
:1040600008F0BCC09093B6018093B50189E00E942E
:10407000A0198DE898E20E944D17BE016F5F7F4F37
:104080008091B5019091B6017EC06091800170E091
:104090004AE088E891E00E94CF1D9C01215031093F
:1040A000273E334008F09AC09195819591099093ED
:1040B000B2018093B1018AE00E94A0198DE898E2D4
:1040C0000E944D178091B1019091B201BE016F5FC6
:1040D0007F4F91958195910956C06091800170E064
:1040E0004AE088E891E00E94CF1D9C0121503109EF
:1040F0002336310508F072C08093AE018BE00E9438
:10410000A0198DE898E20E944D178091AE0157C02A
:104110006091800170E04AE088E891E00E94CF1D44
:104120009C01215031092336310508F057C0809396
:10413000B4018CE00E94A0198DE898E20E944D170E
:104140008091B4013CC06091800170E04AE088E851
:1041500091E00E94CF1D9C0121503109273E334040
:10416000E8F59093B9018093B8018DE00E94A01901
:104170008DE898E20E944D17BE016F5F7F4F8091DE
:10418000B8019091B9010E946B1D21C0609180011E
:1041900070E04AE088E891E00E94CF1D9C01215028
:1041A000310923363105D0F48093AC018EE00E94B2
:1041B000A0198DE898E20E944D178091AC01BE01D4
:1041C0006F5F7F4F90E00E946B1D8AE08B8363E0FE
:1041D00070E0CE0101960E94891704C081E197E248
:1041E0000E944D1787E048C06091800170E04AE06E
:1041F00088E891E00E94CF1D9C01215031092031B7
:104200003105A8F58093B30184E00E94A0198DE8E0
:1042100098E20E944D178091B301BE016F5F7F4FFE
:1042200090E01AC06091800170E04AE088E891E077
:104230000E94CF1D0197D9F41092AA0188E00E9434
:10424000A0198DE898E20E944D178091AA0190E094
:10425000BE016F5F7F4F01960E946B1D8AE08B83CA
:1042600063E070E0CE0101960E94891704C081E1ED
:1042700097E20E944D1783E08093C10102C0109223
:10428000C1010F900F900F900F90DF91CF911F9170
:10429000089590E066E070E00E944F34805D9E4F8C
:1042A000FC0182819381089590E066E070E00E94B5
:1042B0004F34805D9E4FFC01848195810895362F97
:1042C00090E066E070E00E944F34805D9E4FDC011C
:1042D000ED91FC91208181E090E0032E01C0880FD8
:1042E0000A94EAF7282B20830895262F90E066E0B1
:1042F00070E00E944F34805D9E4FDC01ED91FC9197
:10430000308181E090E0022E01C0880F0A94EAF724
:104310008095832380830895362F90E066E070E0D7
:104320000E944F34805D9E4FDC011296ED91FC910E
:104330001397208181E090E0032E01C0880F0A943A
:10434000EAF7282B20830895262F90E066E070E09E
:104350000E944F34805D9E4FDC011296ED91FC91DE
:104360001397308181E090E0022E01C0880F0A94FB
:10437000EAF78095832380830895E82FE695E695F4
:10438000E695F0E0E35AFD4F982F977021E030E07A
:1043900001C0220F9A95EAF79081922B9083909119
:1043A000570220E029175CF4E22FFF27E7FDF09584
:1043B000E659FD4F30813817A1F02F5FF3CF9630CB
:1043C0005CF4E92FFF27E7FDF095E659FD4F808368
:1043D0009F5F9093570208951092700281E080933E
:1043E000CA020895E82FE695E695E695F0E0E35ACF
:1043F000FD4F982F977021E030E001C0220F9A9571
:10440000EAF72095908129232083409157022AE6DC
:1044100032E0F9019E2F921B941724F45191581306
:10442000F9CF01C00895E92FFF27E7FDF095E65980
:10443000FD4F818180839F5F9417ACF3415040937F
:1044400057021092CA020895E82FE695E695E69580
:10445000F0E0E35AFD4F982F977021E030E001C063
:10446000220F9A95EAF790819227908390915702B4
:104470002AE632E0F9014E2F421B491724F45191EC
:104480005813F9CF13C096305CF4E92FFF27E7FDEE
:10449000F095E659FD4F80839F5F909357020895F2
:1044A0001092700281E08093CA020895E42FFF27E2
:1044B000E7FDF095E659FD4F818180834F5F4917F5
:1044C000ACF39150909357021092CA0208959091C4
:1044D000C20294305CF4E92FFF27E7FDF095E85A1B
:1044E000FD4F80839F5F9093C202089540E060E09B
:1044F00070E082E40E94511D10925C020895409188
:10450000C20228E532E0F9019E2F921B941794F421
:1045100051915813F9CFE92FFF27E7FDF095E85A9D
:10452000FD4F818180839F5F9417ACF3415040938E
:10453000C2020895682F70E040E083E40C94511D9E
:104540008091AD018093CD020895962F62E10E9483
:104550004634980F8091530298130DC08091B10199
:104560009091B2018417950734F48091CC028F5F4B
:104570008093CC020895109253021092CC020895B9
:10458000962FE091B501F091B6014E175F0754F4F4
:1045900041E0F901408362E10E944634890F809333
:1045A00053020895F9011082109253021092CC0226
:1045B000089590918F01E92FEE0FFF0BEE58FD4FFC
:1045C0002091550230E0322F2227282B318320837F
:1045D00081E0890F80938F0188323CF01092C802ED
:1045E00080937F0180E10C94D32808959091CE02AE
:1045F000911111C0805D8E3070F4E82FF0E0EE0F65
:10460000FF1FE656FD4E85919491880F991F86569F
:104610009D4E0C94D8170895CF93DF93C82FD62FB3
:104620000E9467228091CD029091AD01891719F007
:104630008B5F0E94D32880E18C0F8093CD0285E1AF
:104640008C0F0E94B7288FE00E94B7288091CD027E
:1046500090915402D0FF02C0981308C0981308C06C
:104660008091CC02811104C08091AD0180935402ED
:10467000DF91CF9108951F93CF93DF9300D01F92C6
:10468000CDB7DEB7182F2B834A8369830E947F2220
:104690002B814A816981222399F18091CD02A82F33
:1046A000B0E0212F30E0205F3109A217B30741F5B8
:1046B0009091CC02992319F061FD8093540280916E
:1046C000560281131DC062FF1BC0141624F46091B2
:1046D0005502842F13C0842F807E803E89F4E42FFE
:1046E000F0E0EE0FFF1FE65CF44D94919095809101
:1046F0005502892380935502649180E00E94C0177F
:104700008091CD028B5F0E94D328E091C202E1111B
:1047100003C08091540207C0FF27E7FDF095E95AD6
:10472000FD4F8081805F8093CD028091CD0290917A
:10473000AD01891749F08B5F0F900F900F90DF91BB
:10474000CF911F910C94B7288FE00F900F900F908E
:10475000DF91CF911F910C94D3286F70623051F08C
:1047600028F4662339F0613081F00895643011F047
:104770006830F1F4E82FF0E0EE0FFF1FE65CF44D37
:10478000E49180915502E82B0AC0E82FF0E0EE0F8B
:10479000FF1FE65CF44DE49180915502E827E09319
:1047A00055028091CB02882319F0E777E0935502F8
:1047B0000895CF93C82F6F70623009F438C018F491
:1047C000662339F151C0643019F0683011F14CC0E2
:1047D0002223F9F0809156028C131BC0141624F486
:1047E00060915502842F13C0842F807E803E89F40F
:1047F000E42FF0E0EE0FFF1FE65CF44D94919095EE
:1048000080915502892380935502649180E00E9433
:10481000C017EC2FF0E0EE0FFF1FE65CF44DE491C3
:10482000E095809155028E23809355021DC08091A2
:104830005502EC2FF0E0EE0FFF1FE65CF44D222353
:1048400071F09091CC02992351F0E491E82BE09320
:1048500055028091CB02882339F0E77703C0E491B9
:10486000E095E823E0935502CF9108956F70623090
:1048700051F028F4662339F0613039F0089564303E
:1048800011F0683021F40C94BD210C942422089579
:104890006F70623049F018F461110EC00BC06430C3
:1048A00049F0683049F406C0222321F09091CC02EF
:1048B000911102C00C94F22108951F93CF93DF93BE
:1048C0001F92CDB7DEB7182F862F807F11F080930F
:1048D0007D01103C78F5103B08F0B3C0183AC0F4E5
:1048E000143A08F07DC0123809F46CC030F48CEF33
:1048F000810F803708F459C000C1143809F46CC026
:1049000008F464C0113A09F0F8C00E944029FBC0C5
:104910001A3A09F4F8C038F4183A09F471C0193A8F
:1049200009F475C0EAC01E3A09F47FC01F3A09F4C1
:1049300080C0E3C01E3D20F5103D08F0B3C0163C1A
:1049400009F494C088F4113C08F4D7C0EFE3E10FF8
:10495000F0E0EE0FFF1FE051F34DE4918091C502AE
:104960008E2B8093C502CFC0183C09F489C008F48F
:1049700081C0193C09F0C1C0809171028F5F83C072
:10498000183E50F4103E08F0B4C01E3D09F48EC02D
:104990001F3D09F4A0C0B1C08FE0810F893008F03D
:1049A000ACC0812F0E940C23AEC08091C802882326
:1049B00029F0812F69830E94D9226981812F0E9469
:1049C0003624A1C06091550289E303C0609155026D
:1049D00083E50E94C01797C06091550287E4F9CF24
:1049E0008091C80281118FC081E08093C80210922B
:1049F0008F018093CE028CE5810F8093BF0160C050
:104A00008091CE0291E089278093CE027CC0809174
:104A1000CB0291E089278093CB02811102C085E00F
:104A200057C085E00E94B7286EC082E08093C20123
:104A30006AC08091C101811166C081E08093C1018B
:104A400062C02091C3023091C402232B09F05BC0E5
:104A5000E0E5E10FF0E0EE0FFF1FE153F34D25918C
:104A600034913093C4022093C3024DC08091C6029A
:104A70008F5F03C08091C60281508093C60205C03B
:104A8000809171028150809371029091A90180916F
:104A9000CC02992321F09091A7019817A0F580935B
:104AA000A70131C0812F0E94F6222DC08091C8023B
:104AB00091E089278093C802882321F010928F010A
:104AC00080E1B0CF80918F01811180937F0180E1DF
:104AD0000E94D32818C08091C802811114C060912F
:104AE0007F01772767FD709582E792E00E9410189A
:104AF0000AC0812F0E94AD2306C0612F70E040E004
:104B000084E40E94511D109356020F90DF91CF91C3
:104B10001F9108951F93CF93DF9300D01F92CDB7BD
:104B2000DEB7182F862F807F11F010927D01163C82
:104B300028F5113C08F095C01B3AB0F4113A08F082
:104B4000D5C0123809F468C028F48CEF810F803783
:104B5000D0F1C0C0133809F463C0143809F0BAC0EA
:104B60006091550287E45FC01E3A08F4B3C0103B61
:104B700008F4BCC0103C08F45EC0ACC0103E90F419
:104B8000103D08F0B3C0173C09F47EC008F478C0AB
:104B9000183C09F47FC0193C09F09CC08091710257
:104BA00081507BC0183E08F47BC08FE0810F8930B4
:104BB00008F090C0812F0F900F900F90DF91CF9150
:104BC0001F910C943B238091C8028823E1F08091CF
:104BD000CE028823C1F0183211F01B32A1F41092DA
:104BE000CE021092C80280918F01815080937F0184
:104BF0001092C00180E12B834A8369830E94D328ED
:104C000069814A812B81812F0F900F900F90DF9146
:104C1000CF911F910C9448246091550289E303C001
:104C20006091550283E50F900F900F90DF91CF9127
:104C30001F910C94C017105BE12FF0E0EE0FFF1FE7
:104C4000E153F34D859194912091C3023091C402B8
:104C50002817390709F04AC01092C4021092C30203
:104C600045C0115CE12FF0E0EE0FFF1FE051F34D66
:104C7000E491E0958091C5028E238093C50236C0F1
:104C80008091C602815003C08091C6028F5F8093DD
:104C9000C6022CC0809171028F5F8093710226C082
:104CA0008091C802882369F080915602811309C05F
:104CB00080E02B834A8369830E94D92269814A81DB
:104CC0002B81812F0F900F900F90DF91CF911F912B
:104CD0000C94D923612F70E040E085E40F900F9091
:104CE0000F90DF91CF911F910C94511D0F900F9059
:104CF0000F90DF91CF911F9108952091550222725C
:104D000091E009F090E02091BB01222359F020911D
:104D1000C902222339F0992329F022EE280F2A30E4
:104D200008F4855C2091B001222349F1833581F498
:104D30008091C90291E089278093C902882321F0DC
:104D400080E00E94B72823C080E00E94D3281FC0C3
:104D500027EA280F2B3098F42091C902E82FF0E0C1
:104D6000EE0FFF1F222341F0992331F0E95FF34D4D
:104D700084918A3A69F407C0E85FF34D84918A3AD6
:104D800039F4992311F089E2089585E3089580E0CC
:104D900008959F92AF92BF92CF92DF92EF92FF92CF
:104DA0000F931F93CF93DF93D82EC62E7A01082F2F
:104DB00010E0C62FD0E08091CD0290E060E970E075
:104DC0000E944F34FC01C80162E170E00E944F3440
:104DD000E80FF91FEC0FFD1FE650F34F84910E947E
:104DE0007D26B82EA091CD022A2F30E0C90160E9BE
:104DF00070E00E944F34FC01C80162E170E00E9443
:104E00004F34E80FF91FEC0FFD1FE65AF84FA4903E
:104E1000C90160E970E00E944F34FC01C80162E101
:104E200070E00E944F34E80FF91FEC0FFD1FE654AD
:104E3000FE4F9490C80162E170E00E944F34C80FA9
:104E4000D91FCD53DE4FA883A7016C2D8D2D0E9455
:104E5000A522492D6A2D8B2D0E945D24DF91CF91D3
:104E60001F910F91FF90EF90DF90CF90BF90AF9088
:104E70009F900C94451D9F92AF92BF92CF92DF926C
:104E8000EF92FF920F931F93CF93DF931F92CDB7B3
:104E9000DEB7D82EC62EDA01E82EF12C062F10E050
:104EA000C70162E170E00E944F345C019C01200F59
:104EB000311F2D533E4FF901208130E0C90160E9D7
:104EC00070E00E944F34F501E80FF91FE00FF11F69
:104ED000E650F34FB490C90160E970E00E944F348E
:104EE000FC01C70162E170E00E944F34E80FF91F36
:104EF000E00FF11FE65AF84FA490C90160E970E095
:104F00000E944F34FC01C70162E170E00E944F34FF
:104F1000E80FF91FE00FF11FE654FE4F94909E0139
:104F20002F5F3F4FAD016C2D8D2D0E94C022298136
:104F3000492D6A2D8B2D0E948A25C70162E170E000
:104F40000E944F34800F911F8D539E4FFC011082A1
:104F50000F90DF91CF911F910F91FF90EF90DF9015
:104F6000CF90BF90AF909F900895CF93DF93C82FBD
:104F7000D0E0262F30E0CE0162E170E00E944F3495
:104F8000FC01DC01A20FB31FAD53BE4FAC91B0E0EA
:104F9000CD0160E970E00E944F34E80FF91FE20F85
:104FA000F31FE650F34F4491CD0160E970E00E9499
:104FB0004F34FC01CE0162E170E00E944F34E80FF3
:104FC000F91FE20FF31FE65AF84FE491E3FF1DC00B
:104FD000141624F460915502842F13C0842F807E10
:104FE000803E99F4E42FF0E0EE0FFF1FE65CF44DF5
:104FF00094919095809155028923809355026491F4
:1050000080E0DF91CF910C94C017DF91CF9108958C
:105010002091CE02211112C0FC01AAE6B2E081E08B
:105020009091CA02992311F0808302C09C919083D1
:105030003196119692E0A037B90791F70895209123
:10504000CE02211109C0ADE5B2E0FC018D91819342
:1050500082E0AA36B807D1F708952091CE02211137
:1050600007C020917D0130915502232BFC01208344
:105070000895262F90E062E170E00E944F34FC0119
:10508000E20FF11DE650F34FE491E83211F0E835FC
:1050900041F441E060E070E081E50E94511D0C9414
:1050A00004190895462F282F30E0C90163E070E00D
:1050B0000E944F34FC01EC53FD4DE491C90163E0C3
:1050C00070E00E944F344E1781F0FC01ED53FD4D0E
:1050D0004491C90163E070E00E944F348E539D4DAE
:1050E000FC018491642F0C948C21FC01ED53FD4D47
:1050F0004491C90163E070E00E944F348E539D4D8E
:10510000FC018491642F0C94A4211F93CF93DF930F
:10511000C2ECD2E210E0FE0131966491FE0184916E
:105120000E945F2160E0812F0E9452281F5F23961A
:10513000133089F78091B3018093D502DF91CF912D
:105140001F9108958091D202893F69F48091D7021E
:105150008F3E19F41092D70203C08F5F8093D7025D
:105160001092D20208958F5F8093D202089590E04A
:10517000FC01EE0FFF1FE656FD4DA491FC01EE0F62
:10518000FF1FE556FD4DE491A33060F4B0E0A1535C
:10519000BD4F8C91E11102C0816003C08170EE0FA0
:1051A0008E0F8C93089590E0FC01EE0FFF1FE656E2
:1051B000FD4DA491FC01EE0FFF1FE556FD4DE4915E
:1051C000A33070F4B0E0A153BD4F8C91E11102C047
:1051D0008E7F05C0982F96959E1302C081708C9388
:1051E0000895823041F0833079F08130A1F481E17B
:1051F0000E94B72813C081E10E94D32882E10E9457
:10520000D32883E10C94B72881E10E94D32882E15E
:105210000E94B72806C081E10E94D32882E10E9443
:10522000D32883E10C94D3281F93CF93DF93CFEC43
:10523000D2E010E08091D3028823B1F0288122309F
:1052400018F421110FC010C0E22FE695F0E0E75FDF
:10525000F24D64918091D7020E946034921720F43D
:1052600090FF02C061E001C060E0812F0E945228DF
:105270001F5F21961330F1F6DF91CF911F910895B2
:105280008091D502803110F081E002C08C5F8C7F6C
:105290008093D50208958091D6028F5F813118F4F2
:1052A0008093D602089581E08093D6021092D402B2
:1052B00008958091D502803120F081E08093D3025F
:1052C00008959091D4026091D6020E9446349817B6
:1052D00038F481E08093D302905F9093D4020895D4
:1052E0001092D30208950E944B290E9459290E94CE
:1052F000A2280C9414296F927F928F929F92AF9262
:10530000BF92CF92DF92EF92FF920F931F93CF93B2
:10531000DF9300D01F92CDB7DEB77C01ADB6BEB62D
:105320008091E80083FF07C1F701808190E0209120
:10533000E0023091E1022817390709F0FCC08091A2
:10534000DD02833009F49BC030F4813071F082308B
:1053500009F4D4C0F0C08A3009F4B7C08B3009F426
:105360009FC0893009F0E7C04BC08091DC02813AD0
:1053700009F0E1C08DB69EB61A8219828091DE02D4
:105380001091DF028B83F701408550E08DB79EB707
:10539000841B950B0FB6F8949EBF0FBE8DBFEDB763
:1053A000FEB731966F0160E070E0CF010E94573583
:1053B0004FEF410F8E010F5F1F4F9601BE016D5FD2
:1053C0007F4FC7010E94621CF70186819781009779
:1053D00029F0408550E0B6010E944E351092E90058
:1053E0008091E800877F8093E80069817A81C60117
:1053F0000E94E92B8091E8008B778093E80039C008
:105400008091DC02813209F096C08DB69EB6009183
:10541000E2021091E3027090DE026090DF028DB72D
:105420009EB7801B910B0FB6F8949EBF0FBE8DBF29
:10543000EDB7FEB731966F018091E800877F8093CA
:10544000E800B801CF010E94482C8091E8008E77D7
:105450008093E80021E0711001C020E030E0021BE1
:10546000130B2C0D3D1D4FEF460D672DC7010E94FC
:10547000B31C0FB6F8949EBE0FBE8DBE5CC080916B
:10548000DC02813A09F057C08091E800877F809361
:10549000E8008091E80080FFFCCFF701818542C0E1
:1054A0008091DC02813209F046C08091E800877F5C
:1054B0008093E8000E94562D9091DE0281E09111C8
:1054C00001C080E0F701818736C08091DC02813223
:1054D00091F58091E800877F8093E8000E94562D27
:1054E0008091DE029091DF02882736E096958795BD
:1054F0003A95E1F7F701958784871DC08091DC021A
:10550000813AC9F48091E800877F8093E800809118
:10551000E80080FFFCCFF7018485958596958795F7
:10552000969587958093F1008091E8008E7780931F
:10553000E8000E94562D0FB6F894BEBE0FBEADBE59
:105540000F900F900F90DF91CF911F910F91FF90CF
:10555000EF90DF90CF90BF90AF909F908F907F9013
:105560006F900895FC01399627E0DF011D922A957E
:10557000E9F721E0FC01218724EF31E0358724871A
:1055800023E0248361E001960C94192D5F926F92C1
:105590007F928F929F92AF92BF92CF92DF92EF92C3
:1055A000FF920F931F93CF93DF9300D01F92CDB73D
:1055B000DEB77C01ADB6BEB68091DB02843009F067
:1055C0008FC08091E4009091E500F701228533853A
:1055D0002817390709F484C081818F708093E9000E
:1055E0008091E80085FF7CC08DB69EB6408550E076
:1055F0008DB79EB7841B950B0FB6F8949EBF0FBE58
:105600008DBFEDB7FEB731966F011B821A821982EA
:1056100060E070E0CF010E9457358E010F5F1F4F91
:10562000960140E0BE016D5F7F4FC7010E94621C82
:10563000682EF70184859585892B41F021E08685C8
:105640009785892B09F020E0722E01C0712CF7019B
:10565000068117810115110599F049815A81B80118
:10566000C6010E94413555245394892B09F4512CCD
:10567000F701408550E0B601C8010E944E3501C0D7
:10568000512C29813A81232BF9F0611004C051106B
:1056900002C070FE19C0F7018485958597878687BB
:1056A00081818F708093E9008B8181118093F1005B
:1056B00069817A8140E050E0C6010E949E2B809172
:1056C000E8008E778093E8008091E4009091E500F7
:1056D000F701938782870FB6F8949EBE0FBE8DBEEA
:1056E0000FB6F894BEBE0FBEADBE0F900F900F90D8
:1056F000DF91CF911F910F91FF90EF90DF90CF90AE
:10570000BF90AF909F908F907F906F905F90089523
:1057100084E089BD86E089BD09B400FEFDCF80919B
:10572000D8008F7D8093D8008091E00082608093C4
:10573000E0008091E00081FDFCCF0895CF92DF92E0
:10574000EF92FF920F931F93CF93DF937C018B0116
:10575000EA010E94772D811133C0209731F08881B2
:105760009981081B190BE80EF91EC12CD12C0115CB
:10577000110529F18091E80085FD16C08091E800AF
:105780008E778093E8000E94FB2F209741F088815C
:1057900099818C0D9D1D9983888385E011C00E949D
:1057A000772D882321F30CC0F70181917F0180932D
:1057B000F10001501109FFEFCF1ADF0AD8CF80E0C6
:1057C000DF91CF911F910F91FF90EF90DF90CF90DD
:1057D00008952091E2023091E3022617370748F03E
:1057E0006115710539F42091E8002E772093E800C7
:1057F00001C0B90120E061157105D1F13091DB02E2
:10580000332309F441C0353009F440C03091E80039
:1058100033FD38C03091E80032FF06C08091E800C7
:1058200082FF29C080E008953091E80030FFE3CF87
:105830002091F20030E0FC01281B390BCF01820FD0
:10584000931F6115710549F08830910530F48191FD
:105850008093F10061507109F1CF21E0089709F0C0
:1058600020E08091E8008E778093E800CF01C3CFDD
:105870002111C4CFD3CF8091DB02882329F085305A
:1058800069F604C081E0089582E0089583E00895F8
:105890006115710529F42091E8002B772093E80029
:1058A0006115710521F12091DB02222349F1253098
:1058B00049F12091E80023FD1FC02091E80022FF5C
:1058C000F2CFFC01CF012091F200222321F380913D
:1058D000F1008193CF01615071096115710591F754
:1058E000DACF8091DB02882359F0853059F080911E
:1058F000E80080FFF6CF02C081E0089580E00895BF
:1059000082E0089583E008952091E2023091E3025D
:105910002617370748F06115710539F42091E80022
:105920002E772093E80001C0B90120E061157105D0
:10593000D9F13091DB02332309F442C0353009F448
:1059400041C03091E80033FD39C03091E80032FFAA
:1059500006C08091E80082FF2AC080E0089530915F
:10596000E80030FFE3CF2091F20030E0FC01281B7B
:10597000390BC9018E0F9F1F6115710551F08830D9
:10598000910538F484918093F1003196615071094A
:10599000F0CF21E0089709F020E08091E8008E77B1
:1059A0008093E800CF01C2CF2111C3CFD2CF809125
:1059B000DB02882329F0853061F604C081E0089578
:1059C00082E0089583E00895982F953058F59093DC
:1059D000E900981739F07091EC002091ED0050919A
:1059E000F00003C0242F762F50E021FF19C0309122
:1059F000EB003E7F3093EB003091ED003D7F309324
:105A0000ED003091EB0031603093EB007093EC00CF
:105A10002093ED005093F0002091EE0027FF07C087
:105A20009F5FD3CF8F708093E90081E0089580E07D
:105A300008950F931F93CF93DF93062FEC0110E08F
:105A4000101771F19881992341F12C81E981FA8134
:105A50006B81892F8F70853010F080E022C022305A
:105A600010F056E001C052E028E030E040E02E1790
:105A70003F0720F44F5F220F331FF9CF4295407F3D
:105A8000452B991F9927991F6295660F660F607CB9
:105A9000692B0E94E42C882301F31F5F2596D0CF49
:105AA00081E0DF91CF911F910F9108958091DC02E9
:105AB00087FD05C08091E80080FF0EC012C0809174
:105AC000E80082FD05C08091DB028111F8CF0895C6
:105AD0008091E8008B7708C08091DB028111EACFCA
:105AE00008958091E8008E778093E8000895809172
:105AF000E4009091E50045E62091EC0020FF21C0F4
:105B00002091E80020FD21C02091DB02222389F0B2
:105B1000253089F02091EB0025FD0FC02091E40095
:105B20003091E5002817390739F3415041F0C90198
:105B3000E3CF82E0089583E0089581E0089584E052
:105B400008952091E80022FFDFCF80E008950E94B1
:105B5000022E0E94052EE0EEF0E0808181608083BD
:105B6000E8EDF0E080818F77808319BCE3E6F0E018
:105B70008081816080831092DA0208950E94022E53
:105B80000E94052E8091D8008F778093D800809155
:105B9000D80080688093D8008091D8008F7D809352
:105BA000D80084E089BD86E089BD09B400FEFDCF40
:105BB0001092DB021092D8021092D90242E060E00B
:105BC00080E00E94E42C8091E1008E7F8093E100D0
:105BD0008091E20081608093E2008091E200886021
:105BE0008093E2008091E0008E7F8093E000089532
:105BF000E3E6F0E080818E7F808381E08093DA02AB
:105C00000C94BE2D1092E20008951092E1000895C8
:105C10001F920F920FB60F9211242F933F934F9321
:105C20005F936F937F938F939F93AF93BF93EF9304
:105C3000FF938091E10082FF0BC08091E20082FF20
:105C400007C08091E1008B7F8093E1000E94391CA6
:105C50008091E10080FF18C08091E20080FF14C0B5
:105C60008091E2008E7F8093E2008091E20080616B
:105C70008093E2008091D80080628093D80019BCA4
:105C80001092DB020E94021C8091E10084FF2EC072
:105C90008091E20084FF2AC084E089BD86E089BD4E
:105CA00009B400FEFDCF8091D8008F7D8093D8008D
:105CB0008091E1008F7E8093E1008091E2008F7EF1
:105CC0008093E2008091E20081608093E200809105
:105CD000D802811104C08091E30087FF02C084E0F4
:105CE00001C081E08093DB020E94FF1B8091E100F4
:105CF00083FF24C08091E20083FF20C08091E100F7
:105D0000877F8093E10082E08093DB021092D802CB
:105D10008091E1008E7F8093E1008091E2008E7F90
:105D20008093E2008091E20080618093E20042E093
:105D300060E080E00E94E42C0E945F1CFF91EF91E4
:105D4000BF91AF919F918F917F916F915F914F9193
:105D50003F912F910F900FBE0F901F9018951F939A
:105D6000CF93DF93CDB7DEB7AA970FB6F894DEBF17
:105D70000FBECDBFECEDF2E08091F100819322E007
:105D8000E43EF207C9F70E94281C8091E80083FFD7
:105D90001AC12091DC023091DD02832F90E08A301D
:105DA000910508F010C1FC01ED5AFF4F0C94B63478
:105DB000203881F0223809F006C18091E0028F700E
:105DC0008093E9008091EB0085FB882780F9109291
:105DD000E90004C08091D902811182E09091E8002D
:105DE000977F9093E8008093F1001092F100C5C076
:105DF000822F8D7F09F0E7C0222319F0223061F055
:105E0000E2C08091DE02813009F0DDC0333009F05C
:105E100080E08093D90228C08091DE02811124C0E5
:105E20002091E0022F7009F4CEC02093E900809108
:105E3000EB0080FF19C08091EB00333011F48062D9
:105E400011C080618093EB0081E090E0022E01C0E0
:105E5000880F0A94EAF78093EA001092EA00809192
:105E6000EB0088608093EB001092E9008091E800DD
:105E7000877F86C02111A7C01091DE021F77809115
:105E8000E3008078812B8093E3008091E800877F96
:105E90008093E8000E94562D8091E80080FFFCCF9F
:105EA0008091E30080688093E300112311F083E088
:105EB00001C082E08093DB0286C02058223008F0C7
:105EC00082C08091DE029091DF028C3D23E0920738
:105ED00079F583E08A838AE289834FB7F894DE01FB
:105EE000139620E03EE051E2E32FF0E0509357009C
:105EF000E49120FF03C0E295EF703F5FEF708E2FBB
:105F000090E0EA3010F0C79601C0C0968D939D9343
:105F10002F5F243149F74FBF8091E800877F80933E
:105F2000E8006AE270E0CE0101960E94E92B14C0FD
:105F3000AE014F5F5F4F6091E0020E94761B0097B9
:105F400009F441C02091E800277F2093E800BC01BC
:105F500089819A810E94842C8091E8008B778093BC
:105F6000E80031C0203879F58091E800877F809380
:105F7000E8008091D8028093F1008091E8008E774C
:105F80008093E8000E94562D1EC021111CC09091E4
:105F9000DE029230C0F48091E800877F8093E800B1
:105FA0009093D8020E94562D8091D802811104C08E
:105FB0008091E30087FF02C084E001C081E080930C
:105FC000DB020E94031C8091E80083FF0AC08091DD
:105FD000E800877F8093E8008091EB0080628093E7
:105FE000EB00AA960FB6F894DEBF0FBECDBFDF91CF
:105FF000CF911F910895CF938091DB028823B1F058
:106000008091E9008F709091EC0090FF02C090E8C1
:1060100001C090E0C92FC82B1092E9008091E800E0
:1060200083FD0E94AF2ECF70C093E900CF910895F9
:1060300040E060E08BE192E30E949F3241E060E04B
:106040008FE192E30E949F3242E060E083E292E3BC
:106050000E949F3243E060E087E292E30E949F3219
:1060600042E060E08CE598E10E949F3240E060E011
:106070008FE69BE10E949F3242E060E080E09EE17B
:106080000E949F3240E060E085EC98E10E949F32E0
:1060900040E061E083E799E20C949F320E94501D3A
:1060A0000E9465190E942B320E944B330E94852862
:1060B0000E94AF300E94A0220E94A5180E94C21622
:1060C0000E94CB190E943F320E94131D81E08093F1
:1060D000C7020E9417321092C70241E062E081E2DB
:1060E0009DE10E949F320E9418300C94F82D0E946E
:1060F000E8328091C2018823E1F30C9401330E94BD
:10610000A72DF8942FEF87EA91E621508040904028
:10611000E1F700C000008091C201823031F48DEAC5
:106120009EED90937804809377048091C201882338
:1061300061F02CE088E190E00FB6F894A895809388
:1061400060000FBE20936000FFCF08950E944E3084
:106150000E9477300E947F3080E090E00895DF92C7
:10616000EF92FF920F931F93CF93DF938BECE82E68
:1061700082E2F82E0EEF12E0E701FE0184910E9408
:106180004921F801329791838083FE013196E49191
:10619000D801EC9322960D5F1F4FB2E2CF3EDB0792
:1061A00061F7C0E0D0E00BE710E0C8010C2E02C0A0
:1061B000959587950A94E2F780FF05C0F7018491D1
:1061C0006C2F0E945F212196C830D10571F7CFEE68
:1061D000D2E206EE12E0DD24D394FE0184910E9407
:1061E0005421F8013297918380837E01FFEFEF1AEB
:1061F000FF0AF7018491FD2D01C0FF0F8A95EAF790
:10620000D801FC93F7016491FE0184910E947521ED
:10621000F7016491FE0184910E948C2122960D5F0A
:106220001F4FF2E2CF3FDF07C1F6DF91CF911F9101
:106230000F91FF90EF90DF900895DF92EF92FF9221
:106240000F931F93CF93DF93D82EA62FB42F062F33
:1062500010E0C42FD0E0C80162E170E00E944F342A
:106260007C01EC0EFD1EEE0CFF1CC7018E5C9C4FEA
:106270007C01FC0120813181DD2009F440C037FF21
:106280001EC0E091BC01F0E0F195E195F109E21743
:10629000F30714F4EC0171C0A9016B2F8A2F0E943F
:1062A000C926C80162E170E00E944F34C80FD91FAF
:1062B000CC0FDD1FCE5CDC4F84E090E049C0E09164
:1062C000B801F091B9012E173F0714F1642F8A2FFE
:1062D0000E94B527C80162E170E00E944F34C80FE8
:1062E000D91FCC0FDD1FCE5CDC4F2091AC01888123
:1062F0009981821B9109F7019183808342C0121614
:1063000013064CF5E091BC01F0E02E173F0774F442
:10631000C80162E170E00E944F34C80FD91FCC0F52
:10632000DD1FCE5CDC4F2C5F3F4F29C0A9016B2FD6
:106330008A2F0E943B27C80162E170E00E944F341F
:10634000C80FD91FCC0FDD1FCE5CDC4F8CEF9FEF49
:106350009983888316C08091B1019091B201821710
:1063600093077CF4C80162E170E00E944F34C80FCB
:10637000D91FCC0FDD1FCE5CDC4F2450310939838F
:106380002883DF91CF911F910F91FF90EF90DF90C5
:106390000895EF92FF920F931F93CF93DF93F62E02
:1063A000182FEAE0EE2E1F15DCF5E091FC02F091CB
:1063B000FD0220812478812F992787FD909563E045
:1063C00070E00E944F34DC01A450BD4F12968C91B6
:1063D000282B20838E2D8A95F1F7C6EED2E000E0BF
:1063E000FE0132970190F081E02D90818881982301
:1063F00081E009F080E09091C702992339F0882369
:1064000049F0612F802F0E94392804C0412F602F4E
:106410000E941D310F5F2396083011F71F5FC3CF15
:10642000DF91CF911F910F91FF90EF90089562E15E
:1064300080E00C94C93164E080E00C94C93169E0DB
:1064400084E00C94C9316DE089E00C94C93162E1BB
:106450008DE00C94C93190E080E80FB6F8948093F9
:106460006100909361000FBE08951F920F920FB6C6
:106470000F9211240F900FBE0F901F9018954BE6AE
:1064800052E361E070E081E00C944F330F931F936F
:10649000CF93DF93082F10E093E0000F111F9A9520
:1064A000E1F70E5A1B4FC0E0D0E0FE01EE0FFF1FD8
:1064B000E00FF11F0190F081E02D309719F0C093AB
:1064C000740409952196C430D10579F7DF91CF91F5
:1064D0001F910F91089580917304882381F080911A
:1064E00072046091740470E0782B40E081E10E94B6
:1064F000511D809173048F5F80937304089581E030
:10650000809373047894809172040E944632809143
:1065100072048F5F80937204843010F010927204C2
:1065200080917304823038F06091730470E040E031
:1065300084E10E94511DA895109273040895EF9272
:10654000FF920F931F93CF93DF938C01E62EF42ECF
:1065500083E08F1580F16F2D70E0DB0123E0AA0F3F
:10656000BB1F2A95E1F7AE5ABB4F20E030E0E901AE
:10657000CC0FDD1FCA0FDB1F88819981892B71F435
:10658000FB01EE0FFF1FEE0FFF1FE20FF31FEE0FD9
:10659000FF1FEE5AFB4F1183008309C02F5F3F4F4F
:1065A0002430310521F741E083E10E94511DEE20A6
:1065B00011F0FE0CCDCFDF91CF911F910F91FF9085
:1065C000EF900895E0E6F0E08081806C808308958C
:1065D00010927204789481E00E94FB332AE088E1F3
:1065E00090E00FB6F894A895809360000FBE2093BA
:1065F00060000C94E232E0E6F0E080818F7B8083E3
:10660000089588E10FB6F8948093600010926000BE
:106610000FBE0E94FB3281E00C9431341F920F9226
:106620000FB60F9211242F933F934F935F936F9365
:106630007F938F939F93AF93BF93EF93FF931092AA
:10664000850010928400E0917A01F0917B01099518
:10665000FF91EF91BF91AF919F918F917F916F913A
:106660005F914F913F912F910F900FBE0F901F9010
:10667000189590E06FE070E00E944F34FC01EE5BF3
:10668000FE4FA081B1811C920480F581E02D3097EE
:1066900009F01082089513BC81E00C9439338F9275
:1066A0009F92AF92BF92CF92DF92EF92FF920F93A1
:1066B0001F93CF93DF93C82F8B016A0180E090E096
:1066C00020E83EE340E050E00E94BE3449015A0118
:1066D000D0E0CE016FE070E00E944F348E5B9E4FA1
:1066E0007C01DC011D962D913C911E9740E050E00D
:1066F000C501B4010E949434D7011696ED91FC9126
:106700001797CE018B589B4F7C01213091E03907C0
:106710004105510558F04AE0B694A79497948794A0
:106720004A95D1F79182808285E037C021343105C6
:106730004105510540F0892C9A2CAB2CBB24918249
:10674000808284E01FC0293031054105510558F091
:1067500026E0B694A794979487942A95D1F79182CE
:10676000808283E01AC0223031054105510568F06E
:1067700093E0B694A794979487949A95D1F79182D1
:10678000808282E0F70180830AC0C80160E87EE36E
:106790000E944F349183808381E0D7018C93CE0196
:1067A0006FE070E00E944F348E5B9E4FDC011696C6
:1067B000ED91FC9117976081718140E082E30E9426
:1067C000511DF701608170E041E080E30E94511D9E
:1067D000CC0FDD1FC858DE4FD982C882DF91CF9120
:1067E0001F910F91FF90EF90DF90CF90BF90AF90EF
:1067F0009F908F900895CF93DF93282F30E0C901A9
:106800006FE070E00E944F34FC01EE5BFE4FA0850C
:10681000B18511961C921E92A281B381E901CB58D9
:10682000DB4F88818C93A681B7818D919C91892BB8
:10683000A9F00284F385E02DC9016FE070E00E94A9
:106840004F348E5B9E4F21E030E0DC011C960C90B3
:1068500002C0220F331F0A94E2F72083DF91CF9109
:106860000895282F30E0C9016FE070E00E944F3496
:106870008E5B9E4FDC011A96ED91FC911B97108266
:106880001296ED91FC91139710820895002480FDDB
:10689000060E660F11F08695D1F7802D089500241D
:1068A000552704C0080E591F880F991F009729F01B
:1068B00076956795B8F37105B9F7802D952F0895F2
:1068C000991B79E004C0991F961708F0961B881F42
:1068D0007A95C9F780950895AA1BBB1B51E107C0A3
:1068E000AA1FBB1FA617B70710F0A61BB70B881F60
:1068F000991F5A95A9F780959095BC01CD010895EF
:1069000097FB072E16F4009407D077FD09D00E945C
:106910006C3407FC05D03EF4909581959F4F089507
:10692000709561957F4F0895A1E21A2EAA1BBB1B9B
:10693000FD010DC0AA1FBB1FEE1FFF1FA217B3074B
:10694000E407F50720F0A21BB30BE40BF50B661F61
:10695000771F881F991F1A9469F760957095809525
:1069600090959B01AC01BD01CF010895EE0FFF1F73
:106970000590F491E02D099468940013E894A0E048
:10698000B0E0E5ECF4E30C94E434EFEFE7F95901FF
:106990006A015E23550FEE08FE2C87019B01AC01B6
:1069A0009E23990F660B762FCB010E941335CDB72E
:1069B000DEB7EAE00C9400352F923F924F925F923F
:1069C0006F927F928F929F92AF92BF92CF92DF92FF
:1069D000EF92FF920F931F93CF93DF93CDB7DEB764
:1069E000CA1BDB0B0FB6F894DEBF0FBECDBF0994F8
:1069F0002A88398848885F846E847D848C849B844F
:106A0000AA84B984C884DF80EE80FD800C811B815C
:106A1000AA81B981CE0FD11D0FB6F894DEBF0FBE8B
:106A2000CDBFED010895DF93CF939F92A0E49A2EFE
:106A30000024D001E001F00116950795F794E79442
:106A4000D794C794B794A79448F41068A20FB31FC3
:106A5000C41FD51FE61FF71F081E191E220F331F64
:106A6000441F551F661F771F881F991F9A9421F78F
:106A70009D01AE01BF01C00111249F90CF91DF9114
:106A80000895FB01DC0104C08D910190801921F46F
:106A900041505040C8F7881B990B0895FB01DC0159
:106AA00002C001900D9241505040D8F70895DC018A
:106AB00001C06D9341505040E0F70895F999FECF21
:106AC00092BD81BDF89A992780B50895A8E1B0E0FC
:106AD00042E050E00C948B35DC01CB0103C02D91DA
:106AE0000E94773541505040D0F70895262FF999EC
:106AF000FECF1FBA92BD81BD20BD0FB6F894FA9AA1
:106B0000F99A0FBE019608950E947635272F0C94AE
:106B10007735DC01CB01FC01F999FECF06C0F2BD4F
:106B2000E1BDF89A319600B40D9241505040B8F74B
:106B30000895F894FFCF0283020000016101020072
:106B40000000000000000182030000016301030057
:106B50000000000000000081120000016601120028
:106B6000000000000000240025002300270028006A
:106B700026002A002B0029004400450000004700A1
:106B800046006E0001FF00800081008200880084C2
:066B9000006F0001FFFF91
:00000001FF
